:100000000C94B0000C94D1000C94D1000C94D1004D
:100010000C94D1000C94D1000C94D1000C94D1001C
:100020000C94D1000C94D1000C94D1000C94D1000C
:100030000C94D1000C94E60C0C94D1000C94D100DB
:100040000C94D1000C94D1000C94D1000C94D100EC
:100050000C94D1000C94D1000C94D1000C94D100DC
:100060000C94D1000C94D1000C94D1000C94D100CC
:100070000C94D1000C94D1000C94D1000C94D100BC
:100080000C94D1000C94D1000C94D1000C94D100AC
:100090000C94C50B0C94A90B0C94D1000C94D100BA
:1000A0000C94D1000C94D1000C94FC000C94D10061
:1000B0000C94D1000C94D1000C94D1000C94D1007C
:1000C0000C94D1000C94D1000C94D1000C94D1006C
:1000D0000C94D1000C94D1000C94D1000C94D1005C
:1000E0000C94D1000C94D1000C94D1000C94D1004C
:1000F0000C94D1000C94D1000C94D1000C94D1003C
:100100000C94D1000C94D1000C94D1000C94D1002B
:100110000C94D1000C94D1000C94D1000C94D1001B
:100120000C94D1000C94D1000C94D1000C94D1000B
:100130000C94D1000C949D020C9406080C94FA0CBB
:100140000C94640D0C9499050C94F70E0C94840592
:100150000C94F50C0C9433080C94730D0C94B60E9F
:1001600011241FBECFEFD1E8DEBFCDBF00E00CBF32
:1001700012E0A0E0B2E0ECE4F2E200E00BBF02C06B
:1001800007900D92A431B107D9F72DE0A4E1B2E0B8
:1001900001C01D92A733B207E1F70E942B0F0C9408
:1001A00024110C94000014BE0FB6F894A895809109
:1001B0006000886180936000109260000FBEE1E6ED
:1001C000F0E080E88083108278940C94E70010922D
:1001D0000E0D80E197E29093A9008093A800E1EAD8
:1001E000F0E088E08083808182608083E2E7F0E055
:1001F00080818260808308951F920F920FB60F92C4
:1002000011248F9380910E0D8F5F80930E0D8F912F
:100210000F900FBE0F901F90189580911402982F89
:100220009F7080915401807F892B8093540190911D
:10023000140280911502992319F0809353010895B7
:100240008F7190914801907E892B80934801089589
:1002500093E090934201909141019F719830D9F7BA
:1002600080934201909141019F718913FBCF0895C2
:1002700088E00E9428018FEF80934F018091160241
:10028000882319F086E10C9428010895E9E3F1E050
:10029000808181608083109216021092140281E0A6
:1002A0008093970288E00E9428018BEE809356018C
:1002B000ECE4F1E0808180688083089580931602E9
:1002C0000C943801809315020C940D01CF93DF93A9
:1002D0001F921F92CDB7DEB79A8389838093620104
:1002E0008A81809363010F900F90DF91CF910895E1
:1002F000CF93DF931F921F92CDB7DEB79A83898386
:10030000809360018A818093610199818A81890F3C
:1003100080936D010F900F90DF91CF91089588E049
:100320000E942801E9E3F1E080818260808382E01D
:10033000809397020895E9E3F1E080818D7F8083C7
:100340000E94380181E08093970208951F93CF9314
:10035000DF93D82F192FC62F89E10E9428018FEF34
:1003600080934F0182E08C0F809380019D2FED2FB1
:10037000F12FA1E8B1E08E2F891B8C1718F4819121
:100380008D93F9CF83E08093970282E080934201BE
:10039000DF91CF911F9108951F93CF93DF9300D0EA
:1003A0001F921F92CDB7DEB780919702823009F479
:1003B00065C080914F0183FF3CC040917B0150E0BC
:1003C000242F30E0852F90E02817390754F0FC01E6
:1003D000E058FE4F6081FC01E95EFD4F60835F5F86
:1003E000F1CF87E192E09A83898342504B83F901F0
:1003F000E95EFD4F80818C83809147018A558D8312
:10040000CE0101960E94CF05809141018F71863106
:10041000D9F780914F01886080934F0180914C0102
:100420008F7780934C0180914C01806880934C01C0
:1004300025C080914F0186FF21C0809141018F71BD
:100440008931B9F41091420112951695177049F04F
:10045000133021F0153021F013E003C011E001C08A
:1004600012E00E94380181E080939702812F0E9460
:10047000440980914F01806480934F010F900F9049
:100480000F900F900F90DF91CF911F9108951092D0
:10049000130D1092140D1092100D10920F0D10925A
:1004A000360D1092350DE5E1FDE0119211928DE0CF
:1004B000E533F807D1F70E9468080E94AE050E9454
:1004C00078030E94B9020C94E6039093100D809378
:1004D0000F0D0C9478019093120D8093110D0C94D4
:1004E0006601E82FF0E0EE0FFF1FEB5EF24F718325
:1004F0006083089581E02091350D3091360D232BD6
:1005000009F480E00895EFE0FDE086A197A101964F
:1005100097A386A30895EFE0FDE086A197A1019738
:1005200097A386A308950C948F010C949B010E94BD
:10053000FD050E9465090C94DC02E0919802F0919F
:1005400099023097A1F0228133812817390759F495
:10055000DC01AD57BF4F2C91278713962C91208B30
:1005600022E0248304C00190F081E02DEACF0C94B6
:10057000B30310929902109298020895FC0114821C
:100580001786138212828091350D9091360D019657
:100590009093360D8093350D809198029091990239
:1005A000009719F41182108202C091838083F09326
:1005B0009902E093980208950F931F93CF93DF93CE
:1005C000E0919802F0919902EF01209709F48BC015
:1005D0008C81882321F0823009F45BC080C00E94A6
:1005E00082038C01009721F482E08C838F877BC08B
:1005F0009B838A8381E08C83F801E957FF4F8DE963
:1006000092E0918380833197898582FB882780F9E6
:100610008083F8018385998590FB80F9838799858C
:1006200093FB992790F990FB82F983878091130DB2
:100630008F5F8093130D848780910F0D9091100D23
:10064000968785878D819E81908B87878885982F57
:100650009F708189807F892B818B9F819295907F6C
:100660008F70892B818BEF57FF4F4C8550E06A8547
:100670007B85808191810E94E910F80191818C85B0
:10068000890F8183C801DF91CF911F910F910C9445
:100690008B08CE17DF0739F48881998190939902EE
:1006A000809398020BC080819181C817D90711F0FF
:1006B000FC01F9CF88819981918380838091350DE8
:1006C0009091360D01979093360D8093350DED8501
:1006D000FE85CE01DF91CF911F910F911994099062
:1006E000D881C02D72CFDF91CF911F910F910895C6
:1006F000EAE9F2E01082E757FF4F87E0E43FF807AE
:10070000C9F70895EAE9F2E080E090E02081211144
:1007100021C049E8489F9001499F300D1124C9012B
:1007200086569D4FFC0111924A95E9F740E1FC0184
:100730004183EF57FF4F24553D4F31832083209154
:10074000350D3091360D2F5F3F4F3093360D20938E
:10075000350D08950196E757FF4F8A309105B1F6A0
:1007600080E090E00895FC011082EFE0FDE086A1BA
:1007700097A1019797A386A30895009711F0FC0114
:1007800003C0EAE9F2E002C0E757FF4F87E0E43F29
:10079000F80728F480818823B9F3CF01089580E019
:1007A00090E00895FC01DC01AD57BF4F1C92AFE013
:1007B000BDE014969C9114979F5F14969C93149798
:1007C00094878D919C91968785870895E4EFF7E053
:1007D00080E090E04FEF5FEF37E052834183389F36
:1007E000D001399FB00D1124AC50B84F2C912E7F01
:1007F0002C931582019637968436910571F70895EA
:10080000CF93DF93A4EFB7E020E030E0C7E070E0E3
:100810001196ED91FC911297E817F90789F4C29FA0
:10082000F001C39FF00D1124EC50F84FD081D1FBA3
:10083000442740F950E04617570711F4CF0108C08C
:100840002F5F3F4F17962436310511F780E090E077
:10085000DF91CF910895E0E0F0E0A4EFB7E08C9154
:1008600080FD0BC015968C911597882361F0309709
:1008700019F09581891708F4FD0117968AE0A03BCD
:10088000B80769F701C0FD0180818D7080638083A6
:1008900080E88583CF010895FC01808180FD05C03B
:1008A0008FEF9FEF92838183158208950E94000449
:1008B000009721F0FC018381948108958FEF9FEFD1
:1008C00008950E940004009711F00C944C040895C0
:1008D000EF92FF920F931F93CF93DF93EC01E98484
:1008E000FA84F7FE06C08D859E85E816F90609F0A4
:1008F0003FC08D819E810196D9F160E08D859E85F6
:100900000E940004FC018E010D571F4F892B11F12D
:100910008F819885019651F491E040910F0D50918F
:10092000100D2F8538894217530709F090E0238175
:100930003481E216F30629F0D8012C9186818217C2
:1009400010F090FF12C0F482E38290819F70906358
:1009500090830BC00E942B04FC018D859E859283A1
:10096000818389859A8594838383D8018C9186833A
:10097000DF91CF911F910F91FF90EF900895CF934A
:10098000DF93EC018F8598898F3F2FEF9207B1F1AC
:100990006B8563FB662760F90E940004FC01892BCC
:1009A00069F1908190FD2AC0CD57DF4F2881892FB2
:1009B0008F70211113C08063808385818F5F858351
:1009C0008F3FE1F4E4EFF7E0858186958F5F8583C3
:1009D00037968AE0E03BF807B9F710C092959F7010
:1009E000915F9F70292F2295207F822B8083911108
:1009F00005C0CF01DF91CF910C944C04DF91CF91D2
:100A00000895CF93DF93FC01878590898F3F2FEF67
:100A1000920719F0638562FF03C09087878308C03F
:100A2000EF0163FB662760F90E94560498878F8365
:100A3000DF91CF910895AF92BF92CF92DF92FF9254
:100A40000F931F93CF93DF938C01FC01F384F3FA90
:100A5000FF24F0F8C784D0886F2DC6010E94560489
:100A60000196A1F0F801E957FF4F118210823197EA
:100A700082E08083C801DF91CF911F910F91FF9099
:100A8000DF90CF90BF90AF900C948B08F801A584B5
:100A9000B6840E948203EC010097D1F00E94D20339
:100AA00089818A5F8983FE01E957FF4F1182108295
:100AB000B88AAF8636970190F081E02D81E080837F
:100AC000B282A182D482C382F582CE010E948B08B9
:100AD000C801DF91CF911F910F91FF90DF90CF90D0
:100AE000BF90AF900C94B303FC012185263051F4E4
:100AF0000780F085E02D6581838194810E946104E7
:100B000081E0089580E00895AC01EEEBFAE020E08A
:100B10009481992319F09150948321E035968BE0CC
:100B2000E83BF807A9F7222319F0CA010C94A80A98
:100B30000895DC0119962C911997222369F01796D4
:100B4000ED91FC9118972081222321F0213021F48E
:100B50000C9474050C94210980E00895EEEBFAE002
:100B6000148235968BE0E83BF807D1F784E690E0F5
:100B7000A0E0B0E08093B60A9093B70AA093B80AB9
:100B8000B093B90A1092BA0A84E895E09093BC0A2F
:100B90008093BB0A69E975E080E00C947102CF9301
:100BA000DF93EC01E881F9818181883801F580814A
:100BB0008F7D8134E1F48A818031C8F00E94820304
:100BC0000097A9F020E2FC0120832A8121832B8158
:100BD000ED57FF4F20832C81319620834A8150E0CE
:100BE000688179810296DF91CF910C94E910DF91B1
:100BF000CF9108958093BD0A08956F927F928F924E
:100C00009F92AF92BF92CF92DF92EF92FF920F939B
:100C10001F93CF93DF93CDB7DEB72C970FB6F89421
:100C2000DEBF0FBECDBF00E010E034E2B32E66247D
:100C3000639442E2A42E53E2752E65E1962E75E090
:100C4000872ECC24C394D12CC8010E94BD038C01F3
:100C5000892B09F4C6C1D8018C91823209F4B7C03E
:100C600018F4803251F0F0CF833209F482C184321B
:100C700059F7C8010E94B303E7CFF801B08223857A
:100C8000822F8A7009F745815681878590894F3F69
:100C90005F4F61F420910F0D3091100D2817390727
:100CA00011F0019689F6D801AC92CECF019611F4DD
:100CB00020FDCACF20910F0D3091100DF8018585D0
:100CC00096852817390709F4BFCFC8010E94680428
:100CD0006EEB7AE080E090E0E0E0F0E0DB0114967B
:100CE0002C91222309F457C0D8011D964D915C9197
:100CF0001E97DB012D913C914217530709F04CC020
:100D0000F8012485889EF001899EF00D1124E2549B
:100D1000F54F8281821B883078F54381242F30E0A3
:100D2000082E02C0359527950A94E2F720FF1AC0D5
:100D300020910F0D3091100DD80117968D919C9137
:100D400018972817390709F07FCF1B966C911B97CE
:100D500063FB662760F91F968D919C9150970E94C6
:100D6000610472CF960102C0220F331F8A95E2F709
:100D7000C901842B838301C12283238130E08195C3
:100D8000A90102C0440F551F8A95E2F7CA0181608C
:100D900083839482F2C0FB0101966B5F7F4F8233A5
:100DA000910509F09BCF309709F44ECFD8011D96DD
:100DB0008D919C911E97918380831C968C91828348
:100DC0006382948280EB9AE00E94A80AD6C01092B7
:100DD000BD0AF8018189982F92959F70E92FF0E064
:100DE000EE0FFF1FEB5EF24F0190F081E02D309788
:100DF00009F45EC0D8011D962D913C911E973A834F
:100E000029831F964D915C9150975C834B838F7023
:100E10008D839E83AF57BF4F8D919C919987888713
:100E2000B8016E5F7F4F861B970BD80111969C917E
:100E30001197981B9A87AD57BF4F8C918B8711964E
:100E40008C918C87D8011B967C91672F637072FD03
:100E500002C090E001C090E2962B73FD02C060E0FA
:100E600001C060E4962B4F3F5F4F11F040E001C09E
:100E700044E0892F842BD80119964D915C911A97E3
:100E80002417350711F090E001C098E0982BD801A5
:100E900015962D913C9116972F3F3F4F11F080E012
:100EA00001C080E1892B8F83CE010196199501C085
:100EB00080E0F801938590FF80E0D80117964D916E
:100EC0005C91189720910F0D3091100D4F3F5F4F9F
:100ED00041F4F801478550892417350711F493FF31
:100EE00081E0D80115964D915C9116974F3F5F4F69
:100EF00009F480E02F3F3F4FC9F18823B9F10E94E8
:100F000082037C01009791F10E94D203D7011196D0
:100F10008C9111978D5F11968C931197F701E9577A
:100F2000FF4F11821082F8018385869581701B9690
:100F30009C911B9780FB91F91B969C931B97858531
:100F4000968550969C938E931F97F701EF57FF4F0E
:100F50000190F081E02D10828091BD0A8283D8013A
:100F60001C968C918183C7010E948B08F801B08286
:100F70006BCEC8010E941B0567CED80117968D91D4
:100F80009C911897019681F420910F0D3091100DCE
:100F9000F801878590892817390731F0838582FD0C
:100FA00003C0C8010E94D90880910F0D9091100DC7
:100FB000D8011F962D913C9150978217930719F0F5
:100FC0002F3F3F4F19F4F801A0823ECED80117966B
:100FD0002D913C9118978217930709F035CE7C929A
:100FE00033CE2C960FB6F894DEBF0FBECDBFDF9187
:100FF000CF911F910F91FF90EF90DF90CF90BF9016
:10100000AF909F908F907F906F9008950F931F9354
:10101000CF93DF938C01C0E080E090E0D3E10E94A9
:10102000BD03009791F0FC0120812131C1F7EC57FD
:10103000FF4F208131812150310931832083232BBF
:1010400011F4FC01D083C1E0EACFCC2339F0C80110
:10105000DF91CF911F910F910C94A80ADF91CF914E
:101060001F910F910895FF920F931F93CF93DF93DA
:101070008C01C0E080E090E0D7E120E1F22E0E94F8
:10108000BD030097A9F0FC0120812631C1F7EC5780
:10109000FF4F208131812150310931832083232B5F
:1010A00029F4FC01D083ED57FF4FF082C1E0E7CF78
:1010B000CC2341F0C801DF91CF911F910F91FF9098
:1010C0000C94A80ADF91CF911F910F91FF90089582
:1010D0001092D30B1092D20BE5ECFBE082E390E090
:1010E000A0E0B0E086839783A087B187128683E370
:1010F00098E094878387E8EBFBE08AE090E0A0E04B
:10110000B0E086839783A087B187128686E098E057
:101110009487838708950F931F93CF93DF93EC01F8
:10112000FC01EA57FF4F808192E198833397108248
:1011300080FF03C02FEF3FEF04C02091110D3091CD
:10114000120D3E832D83857021F4CE010E9401058E
:1011500004C08F85988998878F8380910F0D909117
:10116000100D9A8789878091140D8F5F8093140DDD
:101170008C838F8198858E010C571F4F019669F4DF
:1011800081E498E89B838A830E94DA10877099270C
:101190000196F8019183808307C081E698E89B83DC
:1011A0008A83F80111821082DF91CF911F910F91F4
:1011B00008950F931F93CF93DF938C010E948203B6
:1011C000EC01892BC9F182E18883F801818189834F
:1011D000FE01ED57FF4F10820E94DA10FE01EC571E
:1011E000FF4F8770992701969183808333961182F0
:1011F0001082F801418150E0B8016E5F7F4FCE014F
:1012000002960E94E91081E498E89B838A838FEF1D
:101210009FEF98878F83F801858196819E838D83C8
:1012200080910F0D9091100D9A8789878091140DF0
:101230008F5F8093140D8C83DF91CF911F910F915D
:101240000895CF93DF93FC012185233069F4C78192
:10125000D08580E090E004C0FC012081263131F08F
:101260000E94BD030097C1F780E00BC0348529813F
:101270003213F6CF27E120832A81EA57FF4F2083DC
:1012800081E0DF91CF910895A091D20BB091D30B63
:10129000833030F4E82FF0E0EC5FFD4F808101C037
:1012A00081E0FD01ED57FF4F808385E18C93109223
:1012B000D30B1092D20B8091350D9091360D019782
:1012C0009093360D8093350D0895BF92CF92DF92A3
:1012D000EF92FF920F931F93CF93DF93C0E0D0E084
:1012E00004E117E186E1D82E95E1E92EF12C23E106
:1012F000C22E31E1B32ECE010E94BD03EC01892B39
:1013000009F462C088818331B9F018F4823139F070
:10131000F2CF853159F1873109F445C0ECCFFE0198
:10132000EC57FF4F80819181892B21F0B88288EBA7
:101330009BE034C0C882DFCF8091D20B9091D30B59
:10134000892BC9F6D093D30BC093D20B0883698144
:10135000CE0102960E94A6018091350D9091360D26
:1013600001969093360D8093350DC5CFFE01ED5754
:10137000FF4F8081811115C02D853E8580910F0D15
:101380009091100D2817390761F48B8580FF09C0F3
:10139000D8823196F182E08285EC9BE00E94A80A17
:1013A000AACF1883A8CFCE010E94BF04FE01E9573F
:1013B000FF4F0190F081E02DCE01309719F40E948B
:1013C000B30399CF199597CFDF91CF911F910F91CB
:1013D000FF90EF90DF90CF90BF9008950E94D300D0
:1013E0000E94580A0E9446010C9447020E94CC01B8
:1013F0000E9497020C94B70A0F931F93CF93DF9329
:10140000FC018091D40B9091D50BB681A7813085DA
:1014100021850097F1F14B2F5A2F632F722FDC019A
:10142000D0E0C0E012960D911D912D913C91159741
:10143000401751076207730768F4041B150B260B4E
:10144000370B12960D931D932D933C931597AD2F4B
:10145000BC2F0EC0401B510B620B730B2D913C91A6
:101460001197DA2FCB2F2115310511F0D901DACFE1
:101470004283538364837583109741F08D919C91CF
:10148000119791838083ED93FC930DC091838083AA
:1014900006C011821082B283A38334832583F09324
:1014A000D50BE093D40BDF91CF911F910F9108954D
:1014B0001092D50B1092D40B0895CF93DF93DC01DB
:1014C000E091D40BF091D50BC0E0D0E0309761F102
:1014D000EA17FB0721F58D919C911197209719F040
:1014E0009983888304C09093D50B8093D40BED919E
:1014F000FC9111973097C1F04281538164817581CD
:1015000012968D919D910D90BC91A02D840F951FE9
:10151000A61FB71F82839383A483B58305C0EF0101
:101520000190F081E02DD2CFDF91CF910895E0912D
:10153000D40BF091D50B309739F0E817F90731F05B
:101540000190F081E02DF7CF80E0089581E00895CB
:10155000CF93DF93EC010E94970A811105C0CE0161
:10156000DF91CF910C94FC09DF91CF910895CF9238
:10157000DF92EF92FF92CF93DF9380910E0D88233D
:10158000D1F18FB7F89420910E0D10920E0D8FBFF0
:1015900030E0AAE0B0E00E9480106B017C01C091B5
:1015A000D40BD091D50B209731F18A819B81AC81EE
:1015B000BD81C816D906EA06FB06A8F0C81AD90AE2
:1015C000EA0AFB0A888199819093D50B8093D40B0A
:1015D0008A85813019F4CE010E94FC09EB85FC85D7
:1015E000CE011995DCCF8C199D09AE09BF098A83FC
:1015F0009B83AC83BD83DF91CF91FF90EF90DF9011
:10160000CF9008959B01AC0184E0220F331F441F4B
:10161000551F8A95D1F760E074E284EF90E00E9454
:101620005E10BA01A9014150510961097109BB2736
:10163000A72F962F852F8093CD004093CC0082E07A
:101640008093C80088E98093C90086E08093CA002F
:10165000E2E5FCE08DEE9BE09187808784E690E0F8
:1016600095838483178216821182108213821282DC
:10167000E3EEFBE088ED9BE0918780878AE090E0D5
:1016800095838483178216821182108213821282BC
:1016900081E08093D70B1092D60B08952091580CBF
:1016A0003091590CE091560CF091570C2E173F07D2
:1016B000F9F0A0915A0CB0915B0C4091540C5091F0
:1016C000550CBA016F5F7F4F7093550C6093540CAB
:1016D000A40FB51F8C93E617F70721F41092550C51
:1016E0001092540C2F5F3F4F3093590C2093580C9D
:1016F00008954FB7F8942091EB0B3091EC0B80914B
:10170000E30B9091E40BBC016F5F7F4F7093E40B90
:101710006093E30BF901E80FF91F80816091E30BFF
:101720007091E40B2091E70B3091E80B621773077F
:1017300021F41092E40B1092E30B2091E90B30910D
:10174000EA0B215031093093EA0B2093E90B4FBF8C
:1017500008951F920F920FB60F9211240BB60F929D
:101760008F93EF93FF9381E08093D70BE9ECF0E048
:1017700080818F7D8083FF91EF918F910F900BBEC1
:101780000F900FBE0F901F9018951F920F920FB6DB
:101790000F9211240BB60F922F933F934F935F93A9
:1017A0006F937F938F939F93EF93FF938091C800E4
:1017B0002091CE008C71C9F54091E90B5091EA0B54
:1017C0008091E70B9091E80B4817590771F1409110
:1017D000EB0B5091EC0B8091E50B9091E60BBC016B
:1017E0006F5F7F4F7093E60B6093E50BFA01E80F94
:1017F000F91F20832091E50B3091E60B8091E70BD8
:101800009091E80B2817390721F41092E60B1092FB
:10181000E50B8091E90B9091EA0B01969093EA0B0E
:101820008093E90B81E08093D60BFF91EF919F911C
:101830008F917F916F915F914F913F912F910F9079
:101840000BBE0F900FBE0F901F9018958091580CF3
:101850009091590C009799F12091D70B222379F19F
:1018600060915A0C70915B0C2091520C3091530C8A
:10187000A9014F5F5F4F5093530C4093520CFB01F3
:10188000E20FF31F20816091560C7091570C4617A0
:10189000570721F41092530C1092520C0197909319
:1018A000590C8093580C9FB7F8942093CE008091E8
:1018B000C90080628093C9001092D70B9FBF3FB7C9
:1018C000F8942091D60B1092D60B8091E90B909151
:1018D000EA0B3FBF21110C94160F08958091B600BA
:1018E0008F71E1F70895FF920F931F93CF93DF93CA
:1018F00025E0660F771F881F991F2A95D1F728EEDC
:1019000033E040E050E00E945E10211531054105B2
:10191000510509F455C0BA01A901BB27A72F962F7D
:10192000852F8C01C42F109270008091B6008062C8
:101930008093B6001092B0001092B1001092B200E5
:101940000E946E0C87E087BB8093B100DFEF97E0C9
:10195000F92E10925C0C0115110519F0D093B3000B
:1019600016C0CC2319F0C093B30011C00E946E0CB6
:10197000109270001092B10083B5826083BD0E9406
:101980006E0C8091B6008F7D8093B60019C0809157
:1019900070008260809370000E946E0CF3BE889588
:1019A00013BE9FB7F89480915C0C9FBF882389F287
:1019B0000115110511F4C0E0CCCF01501109C9CFB8
:1019C000DF91CF911F910F91FF9008951F920F9279
:1019D0000FB60F9211248F9381E080935C0C8F914E
:1019E0000F900FBE0F901F90189595B180E1892739
:1019F00085B908950E948B022C988DE99CE00C9487
:101A00005D0ACF93DF93EC018AEA9CE00E945D0AB5
:101A10008DE99CE00E945D0AEAEAFCE089819A81F6
:101A2000A0E0B0E086839783A087B18712868AEF13
:101A30009CE094878387CF010E94A80AEDE9FCE02F
:101A40008B819C81A0E0B0E086839783A087B187DB
:101A500081E0828785EF9CE094878387CF010E9495
:101A6000A80A2C980E94830281E0DF91CF9108950B
:101A7000CF93DF9380916E0C90916F0C892B09F5B9
:101A8000C0E7DCE08B818823B9F0D0936F0CC09362
:101A90006E0C888199819093630C8093620CCE01C7
:101AA00004969093680C8093670C8A818093690CEC
:101AB0008DE59CE00E94BE0229968CE0CD39D807C6
:101AC00009F7DF91CF910895E0916E0CF0916F0CC2
:101AD0008FEF9FEF91838083138210926F0C10928F
:101AE0006E0C0C94380DFC012185222351F0878166
:101AF0009085FC013081303121F4253011F40C94B3
:101B0000010D80E008951092B40C8AEF9CE0909350
:101B1000B60C8093B50C81E08093A70C85EF9CE018
:101B20009093A90C8093A80C10926F0C10926E0CDD
:101B30001092630C1092620C82E08093640C80938C
:101B4000650C8093660C84E69DE090936B0C80930B
:101B50006A0CE0E7FCE08FEF9FEF918380831382B4
:101B600039962CE0ED39F207C1F763E77DE082E0BA
:101B70000C947102E0E7FCE021E030E04185528501
:101B80004817590771F489E0829FF001839FF00D97
:101B90001124E059F34F81E083830E94380D81E0E6
:101BA00008952F5F3F4F39962530310539F780E092
:101BB00008950F931F93CF93DF9300D01F921F922E
:101BC000CDB7DEB79091C90C923001F128F499237A
:101BD00049F0913081F0C0C09330A9F1943009F4FC
:101BE0004AC0BAC0803109F0B7C01092C80C8093C7
:101BF000B70C81E008C09091B70C980F9093B70C88
:101C0000823099F482E08093C90CA6C09091B70C01
:101C1000980F9093B70C803159F483E08093C90CEE
:101C20008091C80C803109F097C01092C90C94C003
:101C3000E091C80C91E09E0F9093C80CF0E0E8543E
:101C4000F34F8083EDCF9091B70C980F9093B70C22
:101C5000803169F4E091C80C91E09E0F9093C80C1C
:101C6000F0E0E854F34F8083903161F6DECF8330AB
:101C7000E1F684E0C8CF9091B70C8913D6CF80915C
:101C8000C80C893090F28091B80C803171F689834C
:101C90008091C10C9091C20C9B838A838091C30C6C
:101CA0009091C40C9D838C830091B90C1091BA0C57
:101CB000F801309729F4CE0101960E94010DB5CFAD
:101CC00017FF2EC0A0E7BCE081E090E019962D91AF
:101CD0003C911A972F3F3F4FE9F429E0289FA0013C
:101CE000299F500D11249A012059334FD901119683
:101CF000FC93EE9385E012968C93129713961C92A8
:101D0000DA01AC58B34FFE01319601900D928A95DD
:101D1000E1F78BCF0196199685309105B9F685CFFD
:101D20008091700C9091710C019609F07ECFF09328
:101D3000710CE093700C85E08093720C91E09093AD
:101D4000730CFE013196A4E7BCE001900D928A95D8
:101D5000E1F70E94380D69CF0F900F900F900F9010
:101D60000F90DF91CF911F910F91089580910D0DEC
:101D7000843021F481E080930D0D08958AEC9CE07D
:101D80000C94A80ACF92DF92EF92FF921F93CF9309
:101D9000DF937C01162F80E10E944E0B82E00E94AF
:101DA0004E0BE701E10EF11C10E0CE15DF0571F0DE
:101DB0006E018881803119F40E944E0B105F899169
:101DC0000E944E0BF6018081180FEFCF80E10E9438
:101DD0004E0B83E00E944E0B85E2810FDF91CF9185
:101DE0001F91FF90EF90DF90CF900C944E0BCF930C
:101DF000DF93EC01EF81F88595B180E2892785B901
:101E00008A85818F8B85828F69858F8198850E94D5
:101E1000C20E888199810E94BA0D882319F081E051
:101E20000E94FA0581E0DF91CF9108950F931F93EF
:101E3000CF93DF938C01C0E0D0E0C017D10731F021
:101E40000E94790B0E94D90D2196F7CFDF91CF9197
:101E50001F910F9108950E94EE0960E076E980E0FD
:101E600090E00E94020B77247394C12CDD24D3945C
:101E7000ED2CFD2C812C90E8992EA12CB12CC4E3E3
:101E8000D2E12FE0222E3CE0332E40E2442E5BE0F4
:101E9000652E06EB1EE064E0562E0E94F6090E94B5
:101EA000260C80910D0D833009F4DDC008F03FC091
:101EB000882309F446C0813081F760E080E090E03B
:101EC0000E9456049093EF0C8093EE0C0E94DA105F
:101ED000A0E0B0E08093F40C9093F50CA093F60C86
:101EE000B093F70C0E94DA108F779927092E000C17
:101EF000AA0BBB0B8093F80C9093F90CA093FA0CEF
:101F0000B093FB0C0E94DA109927092E000CAA0B43
:101F1000BB0B8093FC0C9093FD0CA093FE0CB09334
:101F2000FF0C66E387ED9CE00E94C20E9CC08730E8
:101F300009F4A8C0883009F4B5C0863009F0ADCFE7
:101F400099C07092D70C1092D80C1092D90C1092A4
:101F5000DA0C1092DB0C1092DC0C1092DD0C10925B
:101F6000DE0C1092DF0C1092E00C1092E20C10923A
:101F7000E10CC092E30CD092E40CE092E50CF092FC
:101F8000E60C8092E70C9092E80CA092E90CB092DB
:101F9000EA0CD093EC0CC093EB0C2092ED0C109259
:101FA000EF0C1092EE0C1092F00C1092F10C70925B
:101FB000F20C3092F30C1092F40C1092F50C10927B
:101FC000F60C1092F70C1092F80C1092F90C10927B
:101FD000FA0C1092FB0C1092FC0C1092FD0C10925B
:101FE000FE0C1092FF0C4092000D6092010DE7E094
:101FF000F2E0A2E0BDE0862D01900D928A95E1F716
:10200000829A8A9A999AA198249A2C9A259A2D9A1A
:10201000269A2E9A80E090E00E94650284E392E185
:102020000E946B028FE00E94620181E00E945E01CB
:1020300067EF7EE081E00E94710288EE93E0A0E00D
:10204000B0E08093D00C9093D10CA093D20CB093BD
:10205000D30C1092D40C1093D60C0093D50C2C9862
:102060000E94830D28C08AEC9CE00E94A80A50922E
:102070000D0D13CF0E947A0281110FCF0E9493029F
:1020800087E00DC024982C9825982D9826982E9896
:1020900068EE73E080E090E00E94730C88E080932B
:1020A0000D0DFBCE0E949502249A2C9A259A2D9A0A
:1020B000269A2E9A2C9870920D0DEFCEA1E21A2E30
:1020C000AA1BBB1BFD010DC0AA1FBB1FEE1FFF1FDC
:1020D000A217B307E407F50720F0A21BB30BE40B2C
:1020E000F50B661F771F881F991F1A9469F7609573
:1020F0007095809590959B01AC01BD01CF0108952D
:10210000A29FB001B39FC001A39F700D811D112438
:10211000911DB29F700D811D1124911D08958F9204
:102120009F92AF92BF92CF92DF92EF92FF92CF93A6
:10213000DF93EC01688179818A819B81611571054A
:102140008105910521F464E279ED8BE597E02DE1BD
:1021500033EF41E050E00E94F21049015A019B0127
:10216000AC01A7EAB1E40E9411116B017C01ACEE55
:10217000B4EFA50194010E941F11DC01CB018C0D6D
:102180009D1DAE1DBF1DB7FF03C00197A109B0483B
:1021900088839983AA83BB839F77DF91CF91FF9038
:1021A000EF90DF90CF90BF90AF909F908F90089569
:1021B0000C948F1080E092E00C948F10A0E0B0E0BF
:1021C0008093000290930102A0930202B093030255
:1021D0000895FB01DC0102C001900D924150504076
:1021E000D8F70895052E97FB1EF400940E9409115C
:1021F00057FD07D00E945E1007FC03D04EF40C94EC
:10220000091150954095309521953F4F4F4F5F4FA5
:10221000089590958095709561957F4F8F4F9F4F52
:1022200008950E948010A59F900DB49F900DA49FCB
:10223000800D911D11240895B7FF0C9411110E9477
:0C2240001111821B930B0895F894FFCF3E
:10224C0001000000002021436F6F7264696E61749D
:04225C006F7200009D
:00000001FF
